:020000040800F2
:100000000000012009D500083DE2000885E2000853
:10001000A5E20008ADE20008B5E20008000000001B
:10002000000000000000000000000000BDE2000829
:10003000C9E2000800000000D5E2000801E3000862
:1000400051D5000851D5000851D50008E1E200085B
:1000500051D5000851D5000859E3000851D50008D2
:1000600051D500086DE3000851D5000851D50008AE
:1000700051D5000851D5000851D5000851D50008C8
:1000800051D5000851D5000851D5000851D50008B8
:1000900051D5000851D5000851D5000881E300086A
:1000A00051D5000851D5000851D5000851D5000898
:1000B00059F2000851D5000851D5000851D5000863
:1000C00051D5000851D5000851D5000851D5000878
:1000D00051D5000851D5000851D5000851D5000868
:1000E00045E3000851D5000895E300080000000032
:1000F0000000000000000000000000000000000000
:10010000000000000000000051D5000851D5000893
:1001100051D5000851D5000851D5000851D5000827
:1001200051D5000851D5000851D5000851D5000817
:1001300051D500081DE3000851D5000851D500082D
:1001400051D5000851D5000851D50008CDE300086D
:10015000000000000000000000000000000000009F
:10016000000000000000000000000000000000008F
:10017000000000000000000000000000000000007F
:10018000000000000000000000000000000000006F
:10019000000000000000000000000000000000005F
:1001A000000000000000000000000000000000004F
:1001B000000000000000000000000000000000003F
:1001C000000000000000000000000000000000002F
:1001D000000000000000000000000000000000001F
:0401E0005FF8E0F1F3
:1001E80010B5054C237833B9044B13B10448AFF369
:1001F80000800123237010BD1009002000000000BA
:10020800D4930108084B10B51BB108490848AFF34F
:1002180000800848036803B910BD074B002BFBD0CA
:10022800BDE81040184700BF000000001409002076
:10023800D49301080C0900200000000081F000415F
:1002480002E000BF83F0004330B54FEA41044FEAB3
:10025800430594EA050F08BF90EA020F1FBF54EA4E
:10026800000C55EA020C7FEA645C7FEA655C00F0EA
:10027800E2804FEA5454D4EB5555B8BF6D420CDDBB
:100288002C4480EA020281EA030382EA000083EA3E
:10029800010180EA020281EA0303362D88BF30BDDE
:1002A80011F0004F4FEA01314FF4801C4CEA113134
:1002B80002D0404261EB410113F0004F4FEA033393
:1002C8004CEA133302D0524263EB430394EA050F1E
:1002D80000F0A780A4F10104D5F1200E0DDB02FA8D
:1002E8000EFC22FA05F2801841F1000103FA0EF221
:1002F800801843FA05F359410EE0A5F120050EF1E7
:10030800200E012A03FA0EFC28BF4CF0020C43FA17
:1003180005F3C01851EBE37101F0004507D54FF024
:10032800000EDCF1000C7EEB00006EEB0101B1F574
:10033800801F1BD3B1F5001F0CD349085FEA3000BA
:100348004FEA3C0C04F101044FEA445212F5800FC5
:1003580080F09A80BCF1004F08BF5FEA500C50F162
:10036800000041EB045141EA050130BD5FEA4C0C45
:10037800404141EB010111F4801FA4F10104E9D1CE
:1003880091F0000F04BF01460020B1FA81F308BFC5
:100398002033A3F10B03B3F120020CDA0C3208DD91
:1003A80002F1140CC2F10C0201FA0CF021FA02F16C
:1003B8000CE002F11402D8BFC2F1200C01FA02F1DC
:1003C80020FA0CFCDCBF41EA0C019040E41AA2BF01
:1003D80001EB0451294330BD6FEA04041F3C1CDAC9
:1003E8000C340EDC04F11404C4F1200220FA04F0E9
:1003F80001FA02F340EA030021FA04F345EA030193
:1004080030BDC4F10C04C4F1200220FA02F001FA54
:1004180004F340EA0300294630BD21FA04F02946D6
:1004280030BD94F0000F83F4801306BF81F480116F
:100438000134013D4EE77FEA645C18BF7FEA655CE2
:1004480029D094EA050F08BF90EA020F05D054EAB4
:10045800000C04BF1946104630BD91EA030F1EBFB9
:100468000021002030BD5FEA545C05D140004941BD
:1004780028BF41F0004130BD14F580043CBF01F5B0
:10048800801130BD01F0004545F0FE4141F4700196
:100498004FF0000030BD7FEA645C1ABF1946104671
:1004A8007FEA655C1CBF0B46024650EA013406BF72
:1004B80052EA033591EA030F41F4002130BD00BF31
:1004C80090F0000F04BF0021704730B54FF48064EE
:1004D80004F132044FF000054FF0000150E700BF6F
:1004E80090F0000F04BF0021704730B54FF48064CE
:1004F80004F1320410F0004548BF40424FF00001BB
:100508003EE700BF42004FEAE2014FEA31014FEAFD
:1005180002701FBF12F07F4393F07F4F81F060514C
:10052800704792F0000F14BF93F07F4F704730B5BB
:100538004FF4607401F0004521F0004120E700BF4E
:1005480050EA010208BF704730B54FF000050AE0D5
:1005580050EA010208BF704730B511F0004502D5D6
:10056800404261EB41014FF4806404F132045FEAD8
:10057800915C3FF4DCAE4FF003025FEADC0C18BF7D
:1005880003325FEADC0C18BF033202EBDC02C2F173
:10059800200300FA03FC20FA02F001FA03FE40EA05
:1005A8000E0021FA02F11444C1E600BF70B54FF005
:1005B800FF0C4CF4E06C1CEA11541DBF1CEA1355E7
:1005C80094EA0C0F95EA0C0F00F0DEF82C4481EA4F
:1005D800030621EA4C5123EA4C5350EA013518BF6F
:1005E80052EA033541F4801143F4801338D0A0FB5C
:1005F80002CE4FF00005E1FB02E506F00042E0FB09
:1006080003E54FF00006E1FB03569CF0000F18BF0E
:100618004EF0010EA4F1FF04B6F5007F64F54074B6
:1006280004D25FEA4E0E6D4146EB060642EAC62149
:1006380041EA55514FEAC52040EA5E504FEACE2EB6
:10064800B4F1FD0C88BFBCF5E06F1ED8BEF1004FB9
:1006580008BF5FEA500E50F1000041EB045170BD35
:1006680006F0004646EA010140EA020081EA030179
:10067800B4EB5C04C2BFD4EB0C0541EA045170BD75
:1006880041F480114FF0000E013C00F3AB8014F1EF
:10069800360FDEBF002001F0004170BDC4F1000438
:1006A800203C35DA0C341BDC04F11404C4F12005B9
:1006B80000FA05F320FA04F001FA05F240EA020014
:1006C80001F0004221F0004110EBD37021FA04F64A
:1006D80042EB06015EEA430E08BF20EAD37070BD04
:1006E800C4F10C04C4F1200500FA04F320FA05F063
:1006F80001FA04F240EA020001F0004110EBD37065
:1007080041F100015EEA430E08BF20EAD37070BDD4
:10071800C4F1200500FA05F24EEA020E20FA04F3AD
:1007280001FA05F243EA020321FA04F001F000415C
:1007380021FA04F220EA020000EBD3705EEA430ECD
:1007480008BF20EAD37070BD94F0000F0FD101F0FC
:100758000046400041EB010111F4801F08BF013C35
:10076800F7D041EA060195F0000F18BF704703F073
:100778000046520043EB030313F4801F08BF013DFA
:10078800F7D043EA0603704794EA0C0F0CEA1355B6
:1007980018BF95EA0C0F0CD050EA410618BF52EA70
:1007A8004306D1D181EA030101F000414FF0000076
:1007B80070BD50EA410606BF1046194652EA430684
:1007C80019D094EA0C0F02D150EA013613D195EAF8
:1007D8000C0F05D152EA03361CBF104619460AD140
:1007E80081EA030101F0004141F0FE4141F470014A
:1007F8004FF0000070BD41F0FE4141F4780170BD3A
:1008080070B54FF0FF0C4CF4E06C1CEA11541DBF9E
:100818001CEA135594EA0C0F95EA0C0F00F0A7F8A0
:10082800A4EB050481EA030E52EA03354FEA0131CD
:1008380000F088804FEA03334FF0805545EA1313E0
:1008480043EA12634FEA022245EA111545EA1065A8
:100858004FEA00260EF000419D4208BF964244F13F
:10086800FD0404F5407402D25B084FEA3202B61A5E
:1008780065EB03055B084FEA32024FF480104FF432
:10088800002CB6EB020E75EB030E22BFB61A7546A6
:1008980040EA0C005B084FEA3202B6EB020E75EB39
:1008A800030E22BFB61A754640EA5C005B084FEAA1
:1008B8003202B6EB020E75EB030E22BFB61A75466E
:1008C80040EA9C005B084FEA3202B6EB020E75EB79
:1008D800030E22BFB61A754640EADC0055EA060E3A
:1008E80018D04FEA051545EA16754FEA06164FEA7D
:1008F800C30343EA52734FEAC2025FEA1C1CC0D129
:1009080011F4801F0BD141EA00014FF000004FF0B5
:10091800004CB6E711F4801F04BF01430020B4F176
:10092800FD0C88BFBCF5E06F3FF6AFAEB5EB030C2E
:1009380004BFB6EB020C5FEA500C50F1000041EB2B
:10094800045170BD0EF0004E4EEA113114EB5C04F8
:10095800C2BFD4EB0C0541EA045170BD41F48011CB
:100968004FF0000E013C90E645EA060E8DE60CEAD3
:10097800135594EA0C0F08BF95EA0C0F3FF43BAFF0
:1009880094EA0C0F0AD150EA01347FF434AF95EAA7
:100998000C0F7FF425AF104619462CE795EA0C0F8B
:1009A80006D152EA03353FF4FDAE1046194622E758
:1009B80050EA410618BF52EA43067FF4C5AE50EA32
:1009C80041047FF40DAF52EA43057FF4EBAE12E722
:1009D8004FF0FF3C06E000BF4FF0010C02E000BF03
:1009E8004FF0010C4DF804CD4FEA410C7FEA6C5CE6
:1009F8004FEA430C18BF7FEA6C5C1BD001B050EA89
:100A0800410C0CBF52EA430C91EA030F02BF90EA73
:100A1800020F0020704710F1000F91EA030F58BF32
:100A2800994208BF90422CBFD8176FEAE37040F094
:100A3800010070474FEA410C7FEA6C5C02D150EA32
:100A4800013C07D14FEA430C7FEA6C5CD6D152EAED
:100A5800033CD3D05DF8040B704700BF84461046B2
:100A680062468C461946634600E000BF01B5FFF7B1
:100A7800B7FF002848BF10F1000F01BD4DF808ED81
:100A8800FFF7F4FF0CBF012000205DF808FB00BF52
:100A98004DF808EDFFF7EAFF34BF012000205DF8AC
:100AA80008FB00BF4DF808EDFFF7E0FF94BF0120F9
:100AB80000205DF808FB00BF4DF808EDFFF7CEFFFA
:100AC80094BF012000205DF808FB00BF4DF808ED39
:100AD800FFF7C4FF34BF012000205DF808FB00BF0A
:100AE8004FEA410C7FEA6C5C02D150EA013C0AD122
:100AF8004FEA430C7FEA6C5C02D152EA033C02D114
:100B08004FF0000070474FF0010070474FEA410274
:100B180012F5001215D211D56FF47873B3EB625247
:100B280012D94FEAC12343F0004343EA505311F06E
:100B3800004F23FA02F018BF404270474FF0000000
:100B4800704750EA013005D111F0004008BF6FF03E
:100B5800004070474FF00000704700BFF8B5002212
:100B6800002307460E46FFF793FF28B9384631465B
:100B7800BDE8F84000F00AB8384606F1004100F038
:100B880005F8404261EB4101F8BD00BFD0B5002235
:100B98000E4B06460F46FFF709FD00F08DFF044691
:100BA800FFF78EFC00220A4BFFF700FD02460B46BA
:100BB80030463946FFF746FB00F07EFF2346002209
:100BC80042EA000210461946D0BD00BF0000F03DC1
:100BD8000000F04103685A004CBF43F0004323F083
:100BE80000431844704700BF61B32DE9F84F01F185
:100BF800FF3A90460646D146002707EB090404EB66
:100C0800D4746410E50071190846FFF7E3FFA245A4
:100C1800834605F10800304409D0FFF7DBFFC345E0
:100C280000F1FF3005D8404509D2671CE5E7C34508
:100C380005D9A74202D004F1FF39DEE700210846B2
:100C4800BDE8F88F08467047012807D0022807D06A
:100C5800044B00280CBF1846002070470248704714
:100C68000248704765130008691300086D130008EF
:100C780030B5254B83B004468D1E7BB301A92846A9
:100C8800AFF3008020B301992A46FFF7ADFF014674
:100C9800F0B1FFF79FFF4B68A064012B12D0002B27
:100CA80001F1040021DBFFF795FF0023E0642365D1
:100CB8000368002B1DDBFFF78DFF0023206118461A
:100CC80003B030BD002323610523184603B030BDAF
:100CD800002323610923184603B030BD0B490C4B90
:100CE8000846591AC9100191CEE70123E06423652B
:100CF800DEE7C3F30360FFF7A7FF0028206114BFF6
:100D080000230923DBE700BF00000000349401083A
:100D18001C950108036810B5DA07044606D49B073A
:100D280000F1480009D500F05BFC2368590709D594
:100D38001A070ED5DB0613D510BD00F049FC236851
:100D48005907F5D404F1D00000F052FC23681A07C3
:100D5800F0D404F5A87000F053FC2368DB06EBD44C
:100D680004F5E870BDE8104000F08EBC03680BB1D4
:100D7800184470471846704709207047704700BFED
:100D880070B504460D4608E02A6C23696261214665
:100D98002A4601209847082808D1296C2046FFF7E1
:100DA80067FF06460028EFD014F0F8F80728FBD1B3
:100DB8003046296CFFF7E2FF281D00F0FDFB00BF5D
:100DC8002DE9F0470646ADF5727D03AD0C1D1746BB
:100DD8000FCC0FC50FCC0FC50FCC0FC594E80F0073
:100DE80002ACD6F80C80D6F8189085E80F000023DE
:100DF8003046216C2360FFF73BFF0546002F14BFE8
:100E08000A2709277DB1A36B47F010018DE810026E
:100E18003246636401203346C04778BB28460DF547
:100E2800727DBDE8F087236C4FF4F0727361214640
:100E38007AA800F061FE33697AAA314638469847A5
:100E4800889B82468DE810023946636432463346F1
:100E58000120C04790B94FF4F0727AA9204600F0FB
:100E68004BFEBAF1080F06D1216C3046FFF700FFA0
:100E780009270546C6E7BAF1070F04D009200DF582
:100E8800727DBDE8F0872846216CFFF777FF03A83D
:100E980000F092FB406C7047F0B5CB6BF9B00B6477
:100EA8000E1D01AD0F4604460FCE0FC50FCE0FC560
:100EB8000FCE0FC596E80F004FF0FF3685E80F00FC
:100EC800009606E023696A462146984708280546A1
:100ED80008D110992046FFF7CBFE0028F2D0092050
:100EE80079B0F0BD6846FFF715FF062DF7D13946F2
:100EF8002046FFF745FF00BF30B4DD6BC16082615B
:100F080019461D64002230BC5AE700BF70B543691A
:100F1800C6680B6426B10122FFF752FF14F03EF8B1
:100F280003690A4604460D460146022098470728E9
:100F380007D0082803D129462046FFF721FF14F0DF
:100F48002DF83046296CFFF719FF281D00F034FBF7
:100F5800C2682AB110B4CC6B00220C6410BC2FE715
:100F68009AE700BF704700BF836813B101460120AC
:100F78001847704700B5042907D8DFE801F00309CE
:100F8800060909000BB90F2A05D902205DF804FBF0
:100F980001205DF804FB00EB820252681846019BB1
:100FA8001A605DF804FB00BF10B584B0002303ACE1
:100FB8000A4600941946FFF7DDFF039804B010BDF8
:100FC80000B5042907D8DFE801F00309060909007C
:100FD8000BB90F2A05D902205DF804FB01205DF842
:100FE80004FB019900EB82020968184651605DF81C
:100FF80004FB00BF10B584B004AC44F8042D0023F2
:101008000A4600941946FFF7DBFF04B010BD00BF85
:10101800F0B5D36BADF50F7D1364151D17AC0746FE
:101028000E460FCD0FC40FCD0FC40FCD0FC495E8DA
:101038000F004FF0FF3584E80F00169511E016A851
:101048006A46FFF7D7FF314616A8B84780B9049B10
:1010580016AA6946082098470528044609D0092891
:1010680006D026996846FFF703FE0C210028E6D033
:10107800092416A8FFF74EFE20460DF50F7DF0BD9A
:101088002DE9F04FCC6C914622688BB004340D46A4
:101098000792089400F0030B1E46002B64D112023D
:1010A800032307928DF825608DF824302B6DBBF152
:1010B800020F08BFAC6B13F0010343D100F0080026
:1010C800C2B2039201932768002F3DD0022E47D069
:1010D8002788B4F802800434AB6C28F0010A0F2189
:1010E80048469A44FFF760FF824537D827F0010346
:1010F8009A4450452CBF002001204FEA480808F0C8
:10110800020807F0010748EA0708B8F1010F41D0C3
:1011180038D3B8F1020F1DD1236823F000420292A0
:10112800BBF1000F79D130B10399002900F081801B
:10113800002A00F0A880002B79DB029B013304EB26
:101148008304C0E700230193022E40DDFFF714FE5D
:10115800002842D009200BB0BDE8F08F0020CCE772
:10116800D4F804800834B7E7022B9FDC130CD9B2FB
:1011780012048DF82530022304EB810407928DF8C0
:10118800243093E7BBF1000F02D0002840F0B08074
:10119800043498E7BBF1000F26D1B0B194E80C00F5
:1011A800991C4FEAD272D5D005F158010133069146
:1011B80000F09480201DFFF7D9FD06AB01462846B4
:1011C800AFF30080002840F0B88008347BE707A917
:1011D800484600F0F3FA0028BCD1019B002B5CD1F3
:1011E80008200BB0BDE8F08F0D2148462F6AFFF7A5
:1011F800DBFE8742E9D1AB6A9C42E6D12046FFF785
:10120800E9FC0F2102464846FFF7F4FE48462A4605
:101218000021FFF7EFFE07209DE70D2148462F6AC2
:10122800FFF7C2FE874248D02368002B85DA0434D2
:1012380083E7029B3BB305F15803271DCDF810B097
:10124800DDF80C80A346DDF808A01C46059602E0F0
:10125800B245B04616D038460694FFF787FD06AB70
:10126800014600222846AFF3008008F10106043742
:101278000028EDD0029B5C464345DDF810B0059E82
:10128800D2D100E05C4648460D21FFF78DFE069B53
:101298002862AC626B6206205DE70F214846FFF7C3
:1012A80083FE0E2102464846FFF7A4FE48462A4A16
:1012B8000F21FFF79FFE07204DE7AB6A9C42B3D191
:1012C800042202990027A318A962EF622A636B63BC
:1012D8002368BB421FDB012301932EE748460D21FB
:1012E800FFF762FE2862069B6B62AC62062032E75B
:1012F8002046FFF76FFC04340646AC632846AFF37C
:10130800008000283FF426AF484632460F21FFF7F9
:1013180071FE07201FE70846013004EB8000FFF745
:1013280059FC0F2102464846FFF764FE48462A4604
:101338003946FFF75FFE07200DE707460D214846AF
:10134800FFF732FE022F2862CDD12B46069A43F8CA
:101358002C2F6B62C9E700BF0000000000238FE656
:1013680001238DE602238BE6F0B50446C5B00429B7
:101378000DD8DFE801F057030C310F00012B4FEABD
:10138800124695B266D17219102A40F29F80022047
:1013980045B0F0BD002BFAD1102AF8D82368D8063A
:1013A80000F1C98022AE3046019200F077F9A06BB7
:1013B800019A0023012505FA03F1114203D00168BF
:1013C800043046F823100133042BF4D1A0633046CF
:1013D80000F05AF90020DBE7032BD8D1150C97B29F
:1013E800EB19102BD3D823681E0700F1B88022AE62
:1013F80030467F0000F026F906EBC5027B1EA56B80
:1014080057B12946043A51F8040B013B42F8040F3E
:10141800581CF8D105EB87053046A56300F0F0F8B5
:101428000020B5E7002BB2D1A56B97B2201D01268D
:1014380006FA03F1394203F1010302D029680435A1
:101448000160102B00F10400F2D112F400503BD1DE
:10145800A5639DE7052B9AD17719202F97D80F2ED2
:1014680065D92F46002D48D12A460027002AA06BAF
:1014780071DD00EBC202014644A800EBC6008C38BF
:1014880051F8045B914240F8045FF9D1084697B1DE
:101498003246102E44A938BF102201EBC202A2F531
:1014A800C4727900043A00EB810150F8045B814270
:1014B80042F8045FF9D1012B47D00F2EA16332D92E
:1014C80017B102A800F094F8002061E70F2E3FF64C
:1014D8005EAF00272268D1070DD522F00101052B48
:1014E80021600193204652D022F0030240F8482B95
:1014F80000F072F8019B002F51D02268510736D4B2
:10150800012B3ED00F2E06D822A8019300F06CF8CC
:10151800019B002FA8D002A8019300F06DF8019B51
:10152800C6F11002A2E722A800F05AF8C8E7102F67
:10153800CFD9103FCEE723F01003236004F5E870FD
:10154800019200F0ABF8019A2CE70431A16322A8BC
:1015580000F03EF8B8E7002F9AD10146ABE723F038
:101568000803236004F5A87000F06CF83FE72046F4
:1015780022F0040240F8D02B019300F03DF8019BC3
:10158800BEE722A8019300F027F8019BC8E741F0C5
:10159800020140F8481B00F027F8019BABE7012B3C
:1015A80003D00F2E3FF660AFAEE722A8019300F0FC
:1015B80013F8019B58E700BF00F1340191E83800A7
:1015C8009C46A6464CF8045D90E8FF0FE54600BD32
:1015D80090EC210B704700BF80EC210B704700BFD7
:1015E80090EC200B704700BF80EC200B704700BFC9
:1015F800D0EC200B704700BFC0EC200B704700BF39
:10160800F0EC0201F0EC0211F0EC0221F0EC0231F6
:10161800F0EC0241F0EC0251F0EC0261F0EC0271E6
:10162800F0EC0281F0EC0291F0EC02A1F0EC02B1D6
:10163800F0EC02C1F0EC02D1F0EC02E1F0EC02F1C6
:10164800704700BFE0EC0201E0EC0211E0EC02217F
:10165800E0EC0231E0EC0241E0EC0251E0EC026126
:10166800E0EC0271E0EC0281E0EC0291E0EC02A116
:10167800E0EC02B1E0EC02C1E0EC02D1E0EC02E106
:10168800E0EC02F1704700BFB0FC0181B0FC0191B1
:10169800B0FC01A1B0FC01B1704700BFA0FC018102
:1016A800A0FC0191A0FC01A1A0FC01B1704700BF02
:1016B800EC4600B52DE900502DE9FF1F4FF000035F
:1016C8002DE90C0001A9FFF7E7FBDDF840E012B0B7
:1016D800704700BFEC4600B52DE900502DE9FF1F0B
:1016E8004FF000032DE90C0001A9FFF70FFCDDF80E
:1016F80040E012B0704700BFEC4600B52DE900503D
:101708002DE9FF1F4FF000032DE90C0001A9FFF799
:101718001FFCDDF840E012B0704700BFEC4600B592
:101728002DE900502DE9FF1F4FF000032DE90C00B3
:1017380001ABFFF7E1FBDDF840E012B0704700BFF6
:10174800EC4600B52DE900502DE9FF1F4FF00003CE
:101758002DE90C0001AAFFF75BFCDDF840E012B0B0
:10176800704700BF037A1BB9437A43B9B02070476A
:101778005A1E036802721A020260180E7047426805
:10178800013B10B4437213680321141D01721A023D
:101798004460026010BC180E704700BF00B585B0E9
:1017A80003AA0023009219460C22FFF7E3FB0398D3
:1017B80005B05DF804FB00BFF0E700BF2DE9F0437A
:1017C80006460D4685B04FF000082846FFF7CAFFC9
:1017D800B028044600F0B48020F07F0313F0FF0324
:1017E80020D000F0F003802B7AD0902B35D0A02B9E
:1017F80048D0B02B5CD0C02B00F0898000F0F803F3
:10180800D02B0BD100F00702013242F4002205234D
:1018180001213046FFF7A8FD0028D6D0092005B0E1
:10182800BDE8F0830DF10C0919468700CDF800904A
:101838000D223046FFF79EFBFFB2039B043760067C
:101848004CBFDF1BFF180023CDF8009019460D226E
:1018580030460397FFF7B4FBB7E700F00D030D2BF5
:10186800DCD003AF002300F00F0219460097304682
:10187800FFF780FB0023009719460D223046FFF73B
:101888009FFBA2E7C2434FF47F6302F0070243FACB
:1018980002F2010702EA03024FF0000348BF42F4D4
:1018A800804219463046FFF75FFD0028B6D18CE725
:1018B800B1284AD0B22853D0B32800F0818000F074
:1018C800FC03B42BAAD000F007020132012342F432
:1018D800002219463046FFF747FD00289ED174E7DD
:1018E8002846FFF73FFF24022043B0F5004F95D06C
:1018F80004010023A2B219463046FFF735FD00283F
:101908008CD114F4004F18BF4FF001085DE7C628CA
:1019180062D0C7286CD000F0F803C02B7BD0C82851
:1019280000F09180C9287FF479AF2846FFF71AFFA5
:10193800020300F00F0002F470220130024366E750
:10194800B8F1000F6ED0002069E72846FFF70AFFBC
:10195800024600283FF462AF10F0F003B9D05DE70B
:1019680000230DF10C090D221946CDF800903046E0
:10197800FFF700FB2846FFF7F5FE02064FF00204CA
:101988000CD5039B00F07F00A04003442846039336
:10199800FFF7E8FE030604F10704F2D4039B00F006
:1019A8007F0000FA04F203F5017400231444CDF813
:1019B800009019460D2230460394FFF701FB04E717
:1019C8002846FFF7CFFE010300F00F0001F4702155
:1019D800421C01230A437CE72846FFF7C3FE0103A4
:1019E80000F00F0001F47021421C03230A4370E742
:1019F8002846FFF7B7FE024600283FF40FAF10F065
:101A0800F0037FF40BAF04213046FFF7ADFC00284C
:101A18007FF404AFD9E600F00F020132032342F449
:101A2800202256E703AC43460E2241460094304636
:101A3800FFF7A0FA0094304643460F224146FFF7CD
:101A4800BFFA4046EBE62846FFF78CFE00F0F002AE
:101A580000F00F031032013343EA0232D7E600BF29
:101A680010B5C36C84B003205A688DF80C00DC797B
:101A780012020833084601A901928DF80D4002931D
:101A8800FFF79CFE04B010BD08B5FFF795FE806C0B
:101A980008BD00BF08B5FFF78FFEC36CD87903EB0C
:101AA8008000083008BD00BF08B513F077FA00BF02
:101AB80008B5FFF7F9FF00BF4A0011D212F500126E
:101AC80011D20DD56FF47873B3EB62520ED44FEA8E
:101AD800C12343F0004343EA505323FA02F070470E
:101AE8004FF00000704750EA013002D14FF0FF304C
:101AF80070474FF000007047844641EA000313F036
:101B0800030349D1403A23D30B6803604B68436011
:101B18008B688360CB68C3600B6903614B69436161
:101B28008B698361CB69C3610B6A03624B6A436249
:101B38008B6A8362CB6AC3620B6B03634B6B436331
:101B48008B6B8363CB6BC36340304031403ADBD24D
:101B580030320BD30B6803604B6843608B6883603B
:101B6800CB68C36010301031103AF3D20C3205D371
:101B780051F8043B40F8043B043AF9D2043208D047
:101B8800D2071CBF11F8013B00F8013B01D30B88B9
:101B980003806046704700BF082A13D38B07B1D073
:101BA80010F00303AED0C3F10403D21ADB071CBF45
:101BB80011F8013B00F8013BA4D331F8023B20F8AF
:101BC800023B9FE7043AD9D3013A11F8013B00F8E8
:101BD800013BF9D20B7803704B7843708B78837094
:101BE8006046704753B94AB9002908BF00281CBF8E
:101BF8004FF0FF314FF0FF3000F082B9ADF1080C23
:101C08006DE904CE00F006F8DDF804E0DDE9022312
:101C180004B070472DE9F04F8C460C460546099EE6
:101C2800002B4FD18A4217466BD9B2FA82FEBEF119
:101C3800000F0BD0CEF1200520FA05F501FA0EF3BE
:101C480045EA030C02FA0EF700FA0EF5390CBCFB54
:101C5800F1F0BAB201FB10C300FB02F84FEA154CD1
:101C68004CEA0344A04509D9E41900F1FF3380F098
:101C78002881A04540F2258102383C44C8EB040481
:101C8800B4FBF1F301FB134C03FB02F2ACB244EAE0
:101C98000C418A4209D9C91903F1FF3480F00F8138
:101CA8008A4240F20C81023B39448A1A43EA0040D6
:101CB8000021002E63D022FA0EF2002386E80C00E1
:101CC800BDE8F08F8B4207D9002E56D0002186E858
:101CD80011000846BDE8F08FB3FA83F1002940F0FF
:101CE8009380A34202D3824200F2FE80851A64EBFD
:101CF80003039C460120002E41D086E82010BDE851
:101D0800F08F12B90127B7FBF2F7B7FA87FEBEF1D9
:101D1800000F36D1E41B4FEA17481FFA87F9012153
:101D2800B4FBF8F308FB134409FB03F24FEA154C24
:101D38004CEA0444A24207D9E41903F1FF3002D265
:101D4800A24200F2D3800346A41AB4FBF8F008FBC1
:101D5800104809FB00F9ACB244EA0842914507D99A
:101D6800D21900F1FF3402D2914500F2BA80204620
:101D7800C9EB020240EA03409BE731463046BDE822
:101D8800F08F07FA0EF7CEF1200C24FA0CF34FEA85
:101D98001748B3FBF8FA1FFA87F908FB1A3520FA37
:101DA8000CFC04FA0EF40AFB09FB4CEA040C4FEA9B
:101DB8001C4242EA05439B4500FA0EF50AD9DB1995
:101DC8000AF1FF3280F08B809B4540F28880AAF1AF
:101DD800020A3B44CBEB0303B3FBF8F008FB1033D8
:101DE80000FB09F41FFA8CFC4CEA03439C4207D918
:101DF800DB1900F1FF326ED29C426CD902383B44A9
:101E08001C1B40EA0A418BE7C1F1200E8B4022FAE5
:101E18000EFC4CEA030C24FA0EF74FEA1C49B7FBF8
:101E2800F9FA1FFA8CF309FB1A7720FA0EF88C409E
:101E38000AFB03F548EA04044FEA144848EA07474E
:101E4800BD4202FA01F200FA01FB09D917EB0C07AF
:101E58000AF1FF3041D2BD423FD9AAF1020A6744D4
:101E68007F1BB7FBF9F509FB157705FB03F3A4B254
:101E780044EA0747BB4208D917EB0C0705F1FF30C6
:101E880027D2BB4225D9023D674445EA0A40A0FB58
:101E98000289FF1A4F4545464C4614D329D066B3EC
:101EA800BBEB050367EB040707FA0EFECB40CF40F8
:101EB8004EEA030386E888000021BDE8F08F234638
:101EC800F3E61846DAE6B8EB020569EB0C040138CC
:101ED800E5E70546D9E7104692E78246C0E792460D
:101EE80078E702383A4443E7084604E7023B3C44B3
:101EF8002AE7C345E7D33C46D1E73146BDE8F08F32
:101F0800704700BF70B50F4E0F4D761BB61018BF47
:101F1800002405D0013455F8043B9847A642F9D16E
:101F28000A4E0B4D17F052FA761BB61018BF002454
:101F380006D0013455F8043B9847A642F9D170BD44
:101F480070BD00BF1C9501081C9501082495010867
:101F58001C95010870B4840746D0541E002A41D04D
:101F6800CDB2034602E0621EE4B3144603F8015BF7
:101F78009A07F8D1032C2ED9CDB245EA05250F2CA6
:101F880045EA054519D9264603F11002103E0F2EE1
:101F980042F8105C42F80C5C42F8085C42F8045CB9
:101FA80002F11002F2D8A4F1100222F00F0204F09C
:101FB8000F041032032C13440DD91E462246043A4E
:101FC800032A46F8045BFAD8221F22F003020432DF
:101FD800134404F003042CB1C9B21C4403F8011BD8
:101FE800A342FBD170BC704714460346C2E700BF4A
:101FF800024B13B1024800F005B87047000000001A
:1020080019200008002301461A46184600F014B8A3
:1020180038B5074D074C2C1BA41005D0013C55F8CA
:10202800043D9847002CF9D1BDE8384017F0D4B9E1
:1020380028950108249501082DE9F047254C064606
:1020480025688846D5F8484192469946C4B36068E1
:102058001F2817DC411C76B104EB8003C3F888A065
:10206800D4F88851012282401543022EC4F88851C1
:10207800C3F808911ED0831C6160002044F82380B7
:10208800BDE8F087144B03B34FF4C870AFF300807A
:102098000446D0B1D5F84831002784E8880038468E
:1020A800C5F848410121C4F88871C4F88C71002E24
:1020B800E1D0D1E7D4F88C311A43C4F88C21DAE79F
:1020C80005F5A674C5F84841C1E74FF0FF30BDE8F3
:1020D800F08700BF1C8D01080000000080B400AF2D
:1020E80000BF054B9B889BB203F02003002BF8D060
:1020F80000BFBD4680BC70470028004080B485B052
:1021080000AF0346FB800023FB730F4B9B889BB2F9
:10211800DAB2FB88DBB21340FB730B4B1B889AB215
:10212800FB8813409BB2002B05D0FB7B002B02D011
:102138000123FB7301E00023FB73FB7B1846143774
:10214800BD4680BC704700BF0028004080B483B003
:1021580000AF0346FB800749064B9B889AB2FB8871
:10216800DB439BB213409BB28B8000BF0C37BD464C
:1021780080BC70470028004080B489B000AFF86088
:10218800B96011461A460B46FB711346BB80002303
:10219800FB76FB68DB78002B22D100237B610023D0
:1021A800FB61BB880333002B00DA03339B107B6190
:1021B800FB79FA6832339B0013449B683B61002328
:1021C800FB6109E0BB681A683B691A60FB69013367
:1021D800FB61BB680433BB60FA697B699A42F1D33F
:1021E800FB7E18462437BD4680BC704780B489B052
:1021F80000AFF860B9601346FB800023FB61FB88E1
:102208000333002B00DA03339B10BB61FB68D3F860
:10221800D0307B610023FB6109E07B691A68BB68E9
:102228001A60FB690133FB61BB680433BB60FA6960
:10223800BB699A42F1D3BB6818462437BD4680BCB7
:10224800704700BF80B586B000AF78603960002362
:10225800FB7400237B610023FB60FB6843F02003D1
:10226800FB603B68DBB203F01F03DAB2FB6862F382
:102278008A13FB607B68DB68FA681A617B68DB6835
:102288001B69FB607B6901337B617B69094A934267
:1022980006D8FB68C3F34013DBB2012BEED000E095
:1022A80000BF032004F0C0FDFB7C18461837BD466C
:1022B80080BD00BF400D030080B483B000AF7860DC
:1022C8007B68DB685B6903F0010318460C37BD4681
:1022D80080BC704780B582B000AF78607868FFF73F
:1022E800EBFF0346012B14BF01230023DBB2184682
:1022F8000837BD4680BD00BF80B485B000AF7860A8
:102308000023FB607B68DB685B69FB607B68DB68DC
:102318009B69FA681340FB60FB6818461437BD4692
:1023280080BC704780B485B000AF78600023FB7331
:102338007B681B699B68BB603B7AC3F34103DBB2D4
:10234800022B09D0032B04D0012B02D00323FB73EB
:1023580005E00223FB7302E00123FB7300BFFB7B54
:1023680018461437BD4680BC704700BF80B487B09C
:1023780000AF78600023FB750023BB607B681B6996
:102388009B683B617B689B691B68FB603B7CC3F374
:102398004103DBB2022B04D0BB896FF30A03BB8174
:1023A80005E0BB89032262F30A03BB8100BF7B6897
:1023B8009B69FA681A607B7A43F001037B727B6839
:1023C8001B697A6812695168BA68D2431140BA68C1
:1023D8000A435A60FB7D18461C37BD4680BC7047CF
:1023E80080B487B000AF786039600023FB740023A5
:1023F800FB600023BB603B685B78012B0FD13B6817
:102408001B787A6804339B0013449B687B613B68A4
:102418001B781A46012393409BB23B810EE03B6830
:102428001B787A6814339B0013445B687B613B68B4
:102438001B781A46012393409BB27B817B691B68FA
:10244800FB607B7B23F07F03DBB2002B27D13B684B
:102458009B689BB2C3F30A039AB2BB8962F30A036F
:10246800BB813B68DB7803F00303DAB2BB7B62F322
:102478008303BB733B68DB88DBB203F00F03DAB27C
:10248800FB8962F38913FB81FB7B43F01003FB7329
:102498007B7B43F080037B73FA687B691A607B68F7
:1024A8001B697A681269D169BA680A43DA61FB7CE8
:1024B80018461C37BD4680BC704700BF80B588B041
:1024C80000AF786039600023FB770023BB610023ED
:1024D8007B6100233B613B685B78012B40F0AB805C
:1024E8003B681B787A6804339B0013449B681B681D
:1024F8007B613B681B787A6804339B0013449B68B4
:102508001B693B613B685B69002B09D13B696FF331
:1025180012033B617B8A012262F3CC037B8222E0B7
:102528003B685B69C3F312023B6962F312033B61C8
:102538003B685A693B689B6813445A1E3B689B6812
:10254800B2FBF3F39BB2C3F309039AB27B8A62F33B
:10255800CC037B823B68DB78012B04D1FB7C012216
:1025680062F34613FB743B681B787A6804339B005C
:1025780013449B683A691A617B68DB78012B0AD19E
:102588003B681B787A6804339B0013449B683A685D
:1025980012695A6115E03B68DB78012B11D03B6862
:1025A8005B69002B0DD03B681B781A4601239340CA
:1025B800BB617B681B697A681269516BBA690A4307
:1025C8005A633B68DB78012B14D17B681B699B68D5
:1025D800FB60FB68C3F30D239BB203F00103002BE0
:1025E80004D1FB7D43F02003FB7503E0FB7D43F042
:1025F8001003FB75FB7D43F00403FB75FB7D43F083
:102608008003FB753B681B787A6804339B0013448E
:102618009B687A691A603B68DB78012B40F08980F7
:102628003B68D9683B681A783B685B699BB27868F5
:10263800FFF7A2FD7DE03B681B787A6814339B00A6
:1026480013445B681B687B613B681B787A681433AA
:102658009B0013445B681B693B613B685B69002B0B
:102668000DD13B689B68C3F312023B6962F3120306
:102678003B617B8A012262F3CC037B8220E03B68CA
:102688005A693B689B6813445A1E3B689B68B2FBB7
:10269800F3F39BB2C3F309039AB27B8A62F3CC03C8
:1026A8007B827B8AC3F3C9039BB21A463B689B684B
:1026B80003FB02F3C3F312023B6962F312033B61AB
:1026C8003B681B787A6814339B0013445B683A694B
:1026D8001A617B68DB78012B09D13B681B787A6823
:1026E80014339B0013445B683A6812695A613B686B
:1026F800DB78012B0CD13B685B79002B04D0FB7D88
:1027080043F02003FB7503E0FB7D43F01003FB75EA
:10271800FB7D43F00403FB75FB7D43F08003FB75F1
:102728003B681B787A6814339B0013445B687A69AA
:102738001A60FB7F18462037BD4680BD80B489B03B
:1027480000AF786039600023FB770023BB6100236A
:102758003B610023BB603B685B78012B70D17B68D1
:102768009B697B617B691B683B617B691B69BB60FB
:102778003B685B69002B09D13B7A6FF306033B7218
:10278800BB7A012262F3C403BB7223E03B685A6937
:102798003B689B689A420ED93B689A683B685A61C5
:1027A8003B689B68DBB203F07F03DAB23B7A62F3E3
:1027B80006033B7209E03B685B69DBB203F07F0309
:1027C800DAB23B7A62F306033B72BB7A012262F308
:1027D800C403BB72BA687B691A617B68DB78012B1A
:1027E80009D13B681B787A6804339B0013449B68C3
:1027F8003A6812695A61FB7C43F00403FB74FB7C62
:1028080043F08003FB743A697B691A607B68DB7864
:10281800002B76D13B685B69002B72D03B681B7834
:102828001A46012393401A46BB691343BB617B6870
:102838001B697A681269516BBA690A435A6360E086
:102848003B681B787A6814339B0013445B681B68E9
:102858003B613B681B787A6814339B0013445B68C0
:102868001B69BB603B685B69002B0FD13B689B68A9
:10287800DBB203F07F03DAB23B7A62F306033B7202
:10288800BB7A012262F3C403BB7212E03B689A6808
:102898003B685A613B689B68DBB203F07F03DAB29E
:1028A8003B7A62F306033B72BB7A012262F3C403EC
:1028B800BB723B681B787A6814339B0013445B68CF
:1028C800BA681A617B68DB78012B09D13B681B78F1
:1028D8007A6814339B0013445B683A6812695A613A
:1028E800FB7C43F00403FB74FB7C43F08003FB7424
:1028F8003B681B787A6814339B0013445B683A6919
:102908001A60FB7F18462437BD4680BC704700BF5D
:1029180080B487B000AF786039600023FB7500236E
:10292800FB603B685B78012B1CD13B681B787A689D
:1029380004339B0013449B683B613B691B68FB6045
:10294800FB7B23F07F03DBB2002B03D0FB7B43F040
:102958004003FB73BB7B43F02003BB73FA683B69FE
:102968001A6011E03B681B787A6814339B001344A3
:102978005B683B613B691B68FB60BB7B43F02003E2
:10298800BB73FA683B691A60FB7D18461C37BD4665
:1029980080BC704780B487B000AF7860396000238E
:1029A800FB740023FB603B685B78012B08D13B6814
:1029B8001B787A6804339B0013449B687B6107E0AB
:1029C8003B681B787A6814339B0013445B687B610F
:1029D8007B691B68FB60BB7B6FF34513BB733B686C
:1029E800DB78032B03D03B68DB78022B03D1FB7B1E
:1029F80043F01003FB73FA687B691A60FB7C184686
:102A08001C37BD4680BC704780B485B000AF786085
:102A18007B681B699B69FB607B681B69DB69FA68DB
:102A28001340FB60FB681B0C18461437BD4680BC7E
:102A3800704700BF80B485B000AF78600B46FB706C
:102A4800FB787A6814339B0013445B689B68FB60CF
:102A58007B681B695B69FA681340FB60FB68184672
:102A68001437BD4680BC704780B485B000AF78602D
:102A78007B681B699B69FB607B681B69DB69FA687B
:102A88001340FB60FB689BB218461437BD4680BCF8
:102A9800704700BF80B487B000AF786000233B6107
:102AA800FB7C43F0C003FB74BB7C012262F3C403CC
:102AB800BB743B7C182262F306033B747B685B6D36
:102AC8003A691A617B68DB78012B16D10023FB6019
:102AD8007B685B6D7A6802F2CC525A617B685B6DE9
:102AE8001B68FB60FB7B43F08003FB734FF0802384
:102AF800FB607B685B6DFA681A6000BF1C37BD46D7
:102B080080BC704780B485B000AF78607B689B7AE2
:102B1800002B1BD07B681B699B68FB603B7B03F029
:102B28000103DBB2002B11D07B6803F586731B68A9
:102B3800BB603B7A6FF341033B723B7A6FF3000350
:102B48003B727B68D3F80C31BA681A6000BF14373F
:102B5800BD4680BC704700BF80B485B000AF7860C8
:102B6800294B1B687A6812881344FB607A68FB68F3
:102B78009A421FD0FB681B79002B1BD1234B1B6883
:102B8800FA689A4216D0224B1A68FB689A4202D118
:102B98001F4A7B681360FB681A887B681A801A4B87
:102BA8001B68FA68128813447A6817490968521A28
:102BB80092B25A80144B1B687A6852881344BB60DF
:102BC800BA687B689A421AD0BB681B79002B16D169
:102BD8000F4B1A687B689A4202D10D4ABB68136092
:102BE8007B681A88BB681A80074B1B687A6812884A
:102BF8001344BA6804490968521A92B25A8000BF4D
:102C08001437BD4680BC7047401900204419002085
:102C18004819002080B483B000AF1A4B033323F067
:102C280003031A46184B1A60174B1B687B607B68B6
:102C38004FF480521A807B6800225A807B680022F9
:102C48001A71114B1B6803F58053104A13600F4B20
:102C58001B6801221A710D4B1B684FF480521A80B1
:102C68000A4B1B684FF480525A80094B01221A7094
:102C7800054B1B68074A136000BF0C37BD4680BC74
:102C8800704700BF2C09002040190020441900207B
:102C98004C1900204819002080B584B000AF786036
:102CA8007B68002B1FD0134B1B687A689A42114B24
:102CB8001B687A689A4218D30F4B1B687A689A4245
:102CC80013D27B68083BFB60FB6800221A710B4B30
:102CD8001B68FA689A4202D2084AFB681360F868CF
:102CE800FFF73AFF02E000BF00E000BF1037BD4623
:102CF80080BD00BF40190020441900204819002059
:102D080080B487B000AF78600B467B807B88033344
:102D18009BB223F003037B807B880B2B01D80C2309
:102D28007B807B88B3F5805F01D9002399E04F4B06
:102D38001B687A689A424D4B1B687A689A4204D39A
:102D48004B4B1B687A689A4201D37B6889E07B68A1
:102D5800083B7B617B69454A12689B1A7B827B69C9
:102D68001A887B8AD31A9BB2083B3B827A883B8AB3
:102D78009A4201D9002374E07A883B8A9A4201D1A9
:102D88007B686EE0394B1B687A6912881344FB60D4
:102D9800FB681B79002B31D1FB681B887B817A8A01
:102DA8007B8813449BB208333B81324B1A68FB681B
:102DB8009A4205D12D4B1A683B8913442D4A13605A
:102DC8002A4B1A683B891344FB60FB6800221A717E
:102DD800FB687A891A80FB687A8A5A807B693A8903
:102DE8001A80FB681B88B3F5805F39D01F4B1B68BE
:102DF800FA68128813443A895A8031E07B8803F1D3
:102E080014023B8A9A422BD87A8A7B8813449BB255
:102E180008333B81154B1A683B891344FB60154BFB
:102E28001B68FA689A4202D2124AFB681360FB6870
:102E380000221A717B691A88FB681A80FB687A8AF3
:102E48005A807B693A891A80FB681B88B3F5805FD2
:102E580006D0064B1B68FA68128813443A895A80D0
:102E68007B6818461C37BD4680BC70474019002057
:102E7800441900204819002080B487B000AF0346E9
:102E8800FB80FB88002B01D100238FE0FB880333F4
:102E98009BB223F00303FB80FB880B2B01D80C2388
:102EA800FB80FB88B3F5805F01D900237EE0424BAD
:102EB8001B681A46414B1B68D31AFB826FE03F4BD5
:102EC8001A68FB8A13443B613B691B79002B60D16C
:102ED8003B691B881A46FB8AD31AA3F10802FB88B0
:102EE8009A4256D33B691B881A46FB8AD31AA3F128
:102EF8000802FB8814339A4227D3FA8AFB881344C2
:102F08009BB20833FB812D4B1A68FB891344BB60C5
:102F1800BB6800221A713B691A88BB681A80BB68B3
:102F2800FA8A5A803B69FA891A803B6901221A7128
:102F3800BB681B88B3F5805F0AD0204B1B68BA6852
:102F480012881344FA895A8002E03B6901221A71F7
:102F5800194B1B683A699A4218D107E0174B1B684E
:102F6800154A126812881344134A1360124B1B68DF
:102F78001B79002B05D0104B1A68114B1B689A421D
:102F8800ECD10D4B1A680E4B1B689A423B6908330B
:102F98000CE00A4B1A68FB8A13441B88FB82FA8AE6
:102FA800FB88C3F580539A4289DB002318461C37F7
:102FB800BD4680BC704700BF48190020401900205A
:102FC8004419002080B485B000AF78600B467B8040
:102FD8000023FB730023BB8100237B817B681B8A52
:102FE8009AB27B881340BB817B689B899AB27B88A5
:102FF80013407B81BB89002B05D07B89002B02D035
:103008000123FB7301E00023FB73FB7B1846143795
:10301800BD4680BC704700BF80B483B000AF786005
:103028000B467B807B88DB439AB27B681A8200BFA1
:103038000C37BD4680BC704790B587B000AFF860CC
:10304800B9607A60BB68042B02D0BB68052B67D1D6
:10305800BB687B6161E000233B6158E07A693B69AA
:103068009A420AD03B69002B07D07A69BB689A421A
:1030780026DB3A69BB689A4222DB7A6913465B0011
:1030880013441B011A46FB681A443B69DB001A44C7
:103098004FF000034FF00004C2E900343A691346C8
:1030A8005B0013441B011A46FB681A447B69DB006A
:1030B8001A444FF000034FF00004C2E9003423E043
:1030C8007A6913465B0013441B011A46FB6899187A
:1030D800FA683B69DB00134418CB3A69D2000A440A
:1030E800C2E900343A6913465B0013441B011A46CF
:1030F800FB689918FA683B69DB00134418CB7A69B6
:10310800D2000A44C2E900343B6901333B613B69A0
:10311800052BA3DD7B6901337B617B69052B9ADD78
:103128007968F86800F090F800BF1C37BD4690BD7C
:10313800B0B5ACB000AFF860B9607A603B6007F139
:103148001003902200211846FEF704FF0023C7F859
:10315800AC3069E00023C7F8A8305AE00023C7F86C
:10316800A4304CE0D7F8AC2013465B001344D7F8E2
:10317800A8201344DB0007F1B0021344A03BD3E9B5
:103188000045D7F8AC2013465B001344DB001A4611
:10319800FB681A44D7F8A430DB001344D3E90001D4
:1031A800D7F8A42013465B001344DB001A46BB681B
:1031B8001A44D7F8A830DB001344D3E90023FDF7FD
:1031C800F5F902460B4620462946FDF73DF8034629
:1031D8000C4619462246D7F8AC0003465B00034468
:1031E800D7F8A8000344DB0007F1B0000344A03B74
:1031F800C3E90012D7F8A4300133C7F8A430D7F8D0
:10320800A4203B689A42ADDBD7F8A8300133C7F851
:10321800A830D7F8A820D7F8C4309A429EDBD7F850
:10322800AC300133C7F8AC30D7F8AC207B689A4291
:1032380090DB07F1100390221946F868FEF75CFC52
:1032480000BFB037BD46B0BD2DE9F04FADF2147DDB
:1032580002AF07F10C03186007F108031960002397
:10326800C7F8043747E00023C7F800373AE0D7F833
:10327800042713465B0013445B001A46D7F800374F
:10328800D618D7F8042713465B0013445B001A4688
:10329800D7F800371344DB0007F10C021268134417
:1032A800D3E90001D7F8042713465B0013445B00F9
:1032B8001A46D7F800371344DB0007F10C021268EE
:1032C8001344D3E90023FDF771F902460B4607F5CD
:1032D8009260F1000144C1E90023D7F800370133B7
:1032E800C7F80037D7F80037052BC0DDD7F8043703
:1032F8000133C7F80437D7F80437052BB3DD0023AB
:10330800C7F80437F2E00023C7F800376EE0D7F8B3
:10331800002713465B0013445B001A46D7F80437AE
:10332800134407F55C72DB00D1184FF000024FF030
:103338000003C1E900230023C7F8FC364DE0D7F8A5
:10334800002713465B0013445B001A46D7F804377E
:10335800D618D7F8002713465B0013445B001A46BB
:10336800D7F80437134407F55C72DB001344D3E93C
:1033780000ABD7F8FC2613465B0013445B001A46E3
:10338800D7F804371344B14ADB001344D3E90001EA
:10339800D7F8002713465B0013445B001A46D7F89A
:1033A800FC36134407F59262DB001344D3E900238B
:1033B800FDF7FCF802460B4650465946FCF744FF19
:1033C80002460B4607F55C70F1000144C1E9002391
:1033D800D7F8FC360133C7F8FC36D7F8FC36052B8E
:1033E800ADDDD7F800370133C7F80037D7F8003715
:1033F800052B8CDD0023C7F800376EE0D7F80027CF
:1034080013465B0013445B001A46D7F8043713448D
:1034180007F5B662DB00D1184FF000024FF0000349
:10342800C1E900230023C7F8FC364DE0D7F8002790
:1034380013465B0013445B001A46D7F80437D618C6
:10344800D7F8002713465B0013445B001A46D7F8E9
:103458000437134407F5B662DB001344D3E900AB25
:10346800D7F8FC2613465B0013445B001A46D7F8CE
:103478000437134407F55C72DB001344D3E90001F9
:10348800D7F8002713465B0013445B001A46D7F8A9
:10349800FC3613446E4ADB001344D3E90023FDF7DE
:1034A80085F802460B4650465946FCF7CDFE0246C3
:1034B8000B4607F5B660F1000144C1E90023D7F8CF
:1034C800FC360133C7F8FC36D7F8FC36052BADDDE2
:1034D800D7F800370133C7F80037D7F80037052B7E
:1034E8008CDDD7F804370133C7F80437D7F8043729
:1034F800052B7FF708AF07F5926307F5987207F574
:10350800147107F5B66000F08FFA07F59873D3E9E0
:103518000023104619460FF0D9FA07F5DC63C3E912
:10352800000107F59873D3E90E23104619460FF0EA
:10353800CDFA07F5DB63C3E9000107F59873D3E912
:103548001C23104619460FF0C1FA07F5DA63C3E9E0
:1035580000010023C7F804374EE007F51472D7F8C6
:103568000437DB001344D3E9000107F5DC63D3E932
:103578000023FDF71BF802460B4607F58070D7F8C5
:103588000417C9000144C1E90023D7F804370633FA
:1035980007F51472DB001344D3E9000107F5DB6378
:1035A800D3E90023FDF702F802460B4607F1D000E5
:1035B800D7F80417C9000144C1E90023D7F8043734
:1035C8000C3307F51472DB001344D3E9000107F547
:1035D800DA63D3E90023FCF7E9FF02460B4607F15B
:1035E800A000D7F80417C9000144C1E90023D7F89F
:1035F80004370133C7F80437D7F80437052BACDD97
:1036080007F10803902200211868FEF7A3FC0023A5
:10361800C7F8043711E007F108031A68D7F8043728
:10362800DB00D1184FF000024FF00003C1E900237E
:10363800D7F804370133C7F80437D7F80437022B13
:10364800E9DD0123C7F8043760E000BF208D0108D9
:10365800408E0108D7F8042713465B001344DB00AB
:103668001A4607F108031B689E1807F58072D7F8F9
:103678000437DB001344D3E9000107F58073D3E96D
:103688000023FCF7DFFD02460B46C6E90023D7F806
:10369800042713465B001344DB001A4607F10803AE
:1036A8001B689E1807F1D002D7F80437DB001344D3
:1036B800D3E9000107F1D003D3E90023FCF7C2FDE9
:1036C80002460B46C6E90223D7F8042713465B00D7
:1036D8001344DB001A4607F108031B689E1807F11C
:1036E800A002D7F80437DB001344D3E9000107F13F
:1036F800A003D3E90023FCF7A5FD02460B46C6E963
:103708000423D7F804370133C7F80437D7F8043748
:10371800052B9FDD07F108031B681833D3E900ABBD
:1037280007F108031B681833D3E900014FF00002C2
:103738004FF080430FF032F8C7E9000107F10803A2
:103748001B681833D3E902014FF000024FF08043A1
:103758000FF024F802460B46D7E90001FCF774FD88
:1037680002460B46104619460FF0B0F902460B46C2
:1037780050465946FDF744F802460B46104619468E
:103788000EF0B4FF02460B461146C7F8F01683F058
:103798000043C7F8F43607F108031B681833D3E968
:1037A80002014FF000024FF00003FDF771F90346E4
:1037B800002B09D0D7F8F036C7F8F036D7F8F4362A
:1037C80083F00043C7F8F43607F5DE63D3E9000158
:1037D8000EF0FCFE02460B4607F15801C1E9002332
:1037E80007F5DE63D3E900010EF038FF02460B4609
:1037F80007F15801C1E9022307F158014FF000020F
:103808004FF00003C1E9042307F5DE63D3E90001A3
:103818000EF024FF02460B46904683F0004907F15C
:103828005803C3E9068907F5DE63D3E900010EF002
:10383800CDFE02460B4607F15801C1E9082307F1FE
:1038480058014FF000024FF00003C1E90A2307F1C5
:1038580058014FF000024FF00003C1E90C2307F1B3
:1038680058014FF000024FF00003C1E90E2307F1A1
:1038780058014FF000026B4BC1E9102307F15801C2
:1038880007F108000323019303230093032306226F
:103898000068FFF74DFC07F108031B681833D3E9EC
:1038A800008907F108031B681833D3E900014FF0BA
:1038B80000024FF080430EF071FF82468B4607F1FD
:1038C80008031B681833D3E904014FF000024FF0D6
:1038D80080430EF063FF02460B4650465946FCF7FC
:1038E800B3FC02460B46104619460FF0EFF80246A5
:1038F8000B4640464946FCF783FF02460B461046F6
:1039080019460EF0F3FE02460B461146C7F8E816B4
:1039180083F00043C7F8EC3607F108031B68183337
:10392800D3E904014FF000024FF00003FDF7B0F8AF
:103938000346002B09D0D7F8E836C7F8E836D7F899
:10394800EC3683F00043C7F8EC3607F5DD63D3E9BE
:1039580000010EF03BFE02460B4607F11001C1E9DB
:10396800002307F110014FF000024FF00003C1E9F6
:10397800022307F5DD63D3E900010EF06FFE02466E
:103988000B4607F11001C1E9042307F110014FF0BC
:1039980000024FF00003C1E9062307F110014FF0C0
:1039A8000002204BC1E9082307F110014FF0000283
:1039B8004FF00003C1E90A2307F5DD63D3E90001ED
:1039C8000EF04CFE02460B46144683F0004507F104
:1039D8001003C3E90C4507F110024FF000034FF044
:1039E8000004C2E90E3407F5DD63D3E900010EF0E7
:1039F800EDFD03460C4607F11002C2E9103407F149
:103A0800100107F108000323019303230093032304
:103A180006220068FFF78CFB00BF07F20C77BD4653
:103A2800BDE8F08F0000F03F2DE9F04FADF5557D72
:103A380004AF07F1FC04206007F1F800016007F10A
:103A4800F4010A6007F1F002136007F1FC0307F5BF
:103A5800EC704FF490721968FEF74EF80023C7F81F
:103A68003C3328E007F5D472D7F83C33DB001A441E
:103A78004FF000034FF00004C2E9003407F5BC72B0
:103A8800D7F83C33DB001A444FF000034FF0000432
:103A9800C2E9003407F5A472D7F83C33DB001A44B6
:103AA8004FF000034FF00004C2E90034D7F83C336C
:103AB8000133C7F83C33D7F83C33052BD2DD07F187
:103AC800F8034FF4907200211868FEF743FA07F1E3
:103AD800F0034FF4907200211868FEF73BFA0023B8
:103AE800C7F83833C2E3D7F838231346DB009B1AEC
:103AF800C7F83033002387F82F33D7F83833C3F1AA
:103B08000600D7F830335A1C07F5EC73194602F053
:103B1800E3F90A46014607F5A073C3E9001207F561
:103B2800A073D3E900014FF000024FF00003FCF747
:103B3800CDFF0346002B00F0FB80012387F82F33CD
:103B480007F5EC72D7F83033DB001344D3E90001F2
:103B58004FF000024FF00003FCF79AFF0346002BDA
:103B68000ED007F5A07318CB9A4684F0004B07F5E2
:103B7800D472D7F83833DB001344C3E900AB0BE049
:103B880007F5A073D3E9001207F5D470D7F83833D6
:103B9800DB000344C3E9001207F5D472D7F83833C1
:103BA800DB00134418CBC7F8E83024F00043C7F80B
:103BB800EC304FF000024FF05473D7E93A01FCF7AC
:103BC8007BFF0346002B4AD007F5D472D7F8383369
:103BD800DB00134418CB1A4623464FF00000D549A2
:103BE800FCF70EFE03460C461946224607F5A0735D
:103BF800C3E90012D7F83023D7F83833D31A06337D
:103C0800C7F83C33D7F83033C7F828331FE007F537
:103C1800EC72D7F82833DB001344D3E9000107F529
:103C2800A07318CB1A462346FCF7C0FC03460C4683
:103C38001846214607F5EC72D7F82833DB00134401
:103C4800C3E90001D7F828330133C7F82833D7F878
:103C580028335A1CD7F83C339A42D8DD37E0D7F8D6
:103C68003023D7F83833D31A0633C7F83C33D7F89C
:103C78003033C7F8283323E007F5EC72D7F8283338
:103C8800DB001344D3E9000107F5D472D7F83833C1
:103C9800DB00134418CB1A462346FCF7B1FD034654
:103CA8000C461846214607F5EC72D7F82833DB0096
:103CB8001344C3E90001D7F828330133C7F8283380
:103CC800D7F828335A1CD7F83C339A42D4DD07F585
:103CD800EC72D7F83033DB001344D3E900014FF01E
:103CE8000002944BFCF7B0FA03460C4618462146EE
:103CF80007F5EC72D7F83033DB001344C3E9000151
:103D080007F5D472D7F83833DB00134418CBC7F85B
:103D1800E03084F00043C7F8E43007F5D472D7F8F0
:103D28003833DB001344D7E93812C3E900120BE03B
:103D380007F5D472D7F83833DB001A444FF0000384
:103D48004FF00004C2E90034D7F838330133C7F81C
:103D5800243362E0D7F8242313465B0013445B0046
:103D68001A46D7F838331344C7F83C3397F82F333B
:103D7800002B3DD0D7F83833C3F10605D7F83833D0
:103D8800C3F10604D7F83033581CD7F83C33013355
:103D980007F5EC7207F5EC710093134602462046CE
:103DA80002F042F9D7F838231346DB009B1A07F5CF
:103DB800EC72DB00134418CB1A462346FCF720FDAF
:103DC80003460C46C7F8D83084F00043C7F8DC3007
:103DD800D7F830335A1CD7F83C330133029307F530
:103DE800EC7301930092D7E93623284602F000FAD3
:103DF80007F5EC72D7F83C33DB001344D3E9001223
:103E080007F5BC70D7F82433DB000344C3E900127C
:103E1800D7F824330133C7F82433D7F824330133D0
:103E2800062B97DDD7F83833C7F8283324E0D7F8BE
:103E3800382313465B0013445B001A46D7F828332F
:103E48001344DA0007F1F8031B689918D7F83823E8
:103E580013465B0013445B001A46D7F82833134413
:103E680007F5EC72DB00134418CBC1E90034D7F82E
:103E780028330133C7F82833D7F828330133062B02
:103E8800D5DDD7F838330133042B00F3EA81D7F8AE
:103E98003833C3F10500D7F838339A1C07F5BC73DB
:103EA800194601F071FF0A46014607F5A073C3E9F8
:103EB800001207F5A073D3E900014FF000024FF09C
:103EC8000003FCF7DBFD0346002B0CD007F5BC72A2
:103ED800D7F83833DB001A444FF000034FF00004E2
:103EE800C2E9003495E1D7F83833013307F5BC72DD
:103EF800DB001344D3E900014FF000024FF0000348
:103F0800FCF7C6FD0346002B16D007F5A07318CBA7
:103F1800C7F8D03084F00043C7F8D43007F5BC7236
:103F2800D7F83833DB001344D7E93412C3E9001259
:103F38000EE000BF0000F03F07F5A073D3E90012C0
:103F480007F5BC70D7F83833DB000344C3E9001227
:103F580007F5BC72D7F83833DB001344D3E90012F5
:103F680007F5A073C3E9001207F5BC72D7F8383318
:103F7800DB00134418CBC7F8C83024F00043C7F857
:103F8800CC304FF000024FF05473D7E93201FCF700
:103F980093FD0346002B41D007F5BC72D7F83833A0
:103FA800DB00134418CB1A4623464FF00000C349E0
:103FB800FCF726FC03460C461946224607F5A07373
:103FC800C3E90012D7F838330133C7F828331FE0A4
:103FD80007F5BC72D7F82833DB001344D3E9000196
:103FE80007F5A07318CB1A462346FCF7DFFA0346F9
:103FF8000C461846214607F5BC72D7F82833DB0073
:104008001344C3E90001D7F828330133C7F828332C
:10401800D7F828330133062BDADD2AE0D7F838330E
:104028000133C7F828331FE007F5BC72D7F82833E7
:10403800DB001344D3E9000107F5A07318CB1A4637
:104048002346FCF7DDFB03460C461846214607F5D8
:10405800BC72D7F82833DB001344C3E90001D7F852
:1040680028330133C7F82833D7F828330133062B10
:10407800DADDD7F838335D1C07F5BC72EB00134462
:10408800D3E900014FF000028C4BFCF7DDF8034642
:104098000C461846214607F5BC72EB001344C3E9E9
:1040A800000107F5BC72D7F83833DB00134418CB8E
:1040B800C7F8C03084F00043C7F8C43007F5BC72B5
:1040C800D7F83833DB001344D7E93012C3E90012BC
:1040D800D7F838330133C7F8283310E007F5A4724E
:1040E800D7F82833DB001A444FF000034FF00004E0
:1040F800C2E90034D7F828330133C7F82833D7F892
:1041080028330133062BE9DDD7F838330133C7F8F4
:1041180024332BE0D7F83833C3F1050407F5BC7214
:10412800D7F82433DB001344D3E90001D7F824235C
:1041380013465B0013445B001A46D7F83833134420
:104148009A1CD7F838330233039307F5A473029304
:10415800019207F5EC73009302460B46204601F0E6
:10416800AFFFD7F824330133C7F82433D7F8243303
:104178000133062BCEDDD7F838330133C7F82433A3
:1041880042E0D7F83833C3F1050507F5BC72D7F814
:104198002433DB00134418CBC7F8B83084F000434D
:1041A800C7F8BC30D7F83833013307F5BC72DB00E9
:1041B800134418CB1A462346D7E92E01FCF720FBF7
:1041C80003460C469846A146D7F83833991CD7F8C9
:1041D800242313465B0013445B001A46D7F8383390
:1041E80013440233039307F5EC730293019107F527
:1041F800A473009342464B46284601F0ADFFD7F81A
:1042080024330133C7F82433D7F824330133062B7A
:10421800B7DDD7F838330133C7F828331CE0D7F8AF
:10422800382313465B0013445B001A46D7F828333B
:104238001344DA0007F1F0031B68991807F5BC72FC
:10424800D7F82833DB00134418CBC1E90034D7F87A
:1042580028330133C7F82833D7F828330133062B1E
:10426800DDDDD7F838330133C7F83833D7F83833BA
:10427800042B7FF738AC0423C7F8343307F5EC7305
:1042880003F58C73D3E9001207F5D473C3E90A1256
:1042980007F5EC7303F58873D3E9001207F5BC73CF
:1042A800C3E9081207F5BC724FF000034FF0000491
:1042B800C2E90A340023C7F8283314E00000F03FAD
:1042C800D7F828331E33DA0007F1F8031B681A44BD
:1042D8004FF000034FF00004C2E90034D7F8283348
:1042E8000133C7F82833D7F82833052BE8DD07F161
:1042F800F8031B6803F58C724FF00003D04CC2E939
:1043080000340423C7F8383316E1D7F838231346A6
:10431800DB009B1AC7F8303307F5D472D7F8383367
:10432800DB001344D3E900014FF000024FF0000313
:10433800FCF7A4FB0346002B40F0CB80D7F83833BA
:104348000133C7F824334DE0D7F8242313465B0024
:1043580013445B001A46D7F8383313440133C7F8BF
:104368003C33D7F83833C3F10605D7F83833C3F1EF
:104378000604D7F83033581C07F1F80207F1F801A2
:10438800D7F83C330093136802460968204601F0C9
:104398004BFED7F83033DA0007F1F8031B681344F3
:1043A80018CB1A462346FCF72BFA03460C46C7F8E7
:1043B800B03084F00043C7F8B430D7F830335A1C13
:1043C800D7F83C33029307F1F8031B680193009276
:1043D800D7E92C23284601F00BFFD7F82433013303
:1043E800C7F82433D7F824330133062BACDDD7F8CC
:1043F8003833C7F828332DE0D7F8382313465B0045
:1044080013445B001A46D7F828331344DA0007F13F
:10441800F8031B689918D7F8382313465B00134430
:104428005B001A46D7F828331344DA0007F1F8037B
:104438001B68134418CBC7F8A83084F00043C7F8AA
:10444800AC30D7E92A34C1E90034D7F8283301332E
:10445800C7F82833D7F828330133062BCCDDD7F833
:104468003033DA0007F1F8031B689D18D5E900011D
:104478004FF00002724BFBF7E7FE03460C46C5E916
:1044880000340123C7F828331CE0D7F83823134633
:104498005B0013445B001A46D7F82833134403F132
:1044A8000053013BDA0007F1F8031B681A444FF088
:1044B80000034FF00004C2E90034D7F82833013371
:1044C800C7F82833D7F82823D7F838339A42DCDDE1
:1044D8002DE00023C7F8283319E0D7F8382313460E
:1044E8005B0013445B001A46D7F828331344DA00FC
:1044F80007F1F8031B681A444FF000034FF000045B
:10450800C2E90034D7F828330133C7F82833D7F87D
:104518002833052BE1DDD7F83033DA0007F1F8034B
:104528001B681A444FF00003454CC2E90034D7F821
:104538003833013BC7F83833D7F83833002BBFF688
:10454800E4AE0523C7F83833AFE0D7F83833013382
:10455800042B70DC07F5BC72D7F83833DB00134442
:10456800D3E900014FF000024FF00003FCF786FA90
:104578000346002B5FD1D7F838231346DB009B1A7C
:104588000233C7F83C33D7F838330133C7F824333C
:104598004CE0D7F8242313465B0013445B001A460B
:1045A800D7F8383313440233C7F82833D7F83833E9
:1045B800C3F10505D7F83833C3F1050007F1F00258
:1045C80007F1F001D7F8283300931368D7F83C2394
:1045D800096801F029FDD7F83C3303F10053013B8A
:1045E800DA0007F1F0031B68134418CB1A46234678
:1045F800FCF706F903460C46C7F8A03084F00043E0
:10460800C7F8A430D7F82833029307F1F0031B68E2
:104618000193D7F83C330093D7E92823284601F0C3
:10462800E7FDD7F824330133C7F82433D7F8243308
:104638000133062BADDD0023C7F828331CE000BF8B
:104648000000F03FD7F8382313465B0013445B00A3
:104658001A46D7F828331344DA0007F1F0031B6829
:104668001A444FF000034FF00004C2E90034D7F8B1
:1046780028330133C7F82833D7F82833052BE1DD71
:10468800D7F838231346DB009B1ADB001A4607F1DC
:10469800F0031B681A444FF000038F4CC2E9003442
:1046A800D7F83833013BC7F83833D7F83833002BFD
:1046B800BFF64BAF0023C7F83833F9E007F5BC72F3
:1046C800D7F83833DB001344D3E9001207F5A07399
:1046D800C3E9001207F5D472D7F83833DB00134466
:1046E800D3E900014FF000024FF00003FCF7C6F9D0
:1046F8000346002B61D107F5D472D7F83833DB00B5
:10470800134418CBC7F8983024F00043C7F89C30FE
:1047180007F59C73D7E92612C3E9001207F5D4728E
:10472800D7F83833DB001344D3E9000107F59C734D
:1047380018CB1A462346FCF763F803460C4619467D
:10474800224607F59873C3E9001207F59C73D3E96D
:10475800001207F5D470D7F83833DB000344C3E9F7
:104768000012D7F838330133052B16DC07F5BC7275
:10477800D7F83833DB001344D3E9000107F5987301
:1047880018CB1A462346FCF73BF803460C46194655
:10479800224607F5A073C3E9001207F59873D3E919
:1047A8000001D7F8382313465B0013445B0001333C
:1047B80007F1F802126801F04FF9D7F838330133DE
:1047C800052B64DC07F5A073D3E900014FF0000264
:1047D8004FF00003FCF752F90346002B57D107F5B9
:1047E800A07318CBC7F8903024F00043C7F8943072
:1047F80007F59C73D7E92412C3E9001207F59C73E7
:10480800D3E9000107F5A07318CB1A462346FBF736
:10481800F7FF03460C461946224607F59873C3E985
:10482800001207F59C73D3E9001207F5A073C3E9DA
:104838000012D7F838335D1CD7F83833013307F541
:10484800D472DB001344D3E9000107F5987318CB41
:104858001A462346FBF7AAFE03460C46184621468D
:1048680007F5D472EB001344C3E9000107F5987308
:10487800D3E90001D7F838335A1C13465B001344B8
:104888005B00013307F1F002126801F0E5F807F563
:10489800A073D3E9001207F5BC70D7F83833DB00F2
:1048A8000344C3E90012D7F838330133C7F8383363
:1048B800D7F83833052B7FF701AF0023C7F830331B
:1048C8004FF000034FF0000407F54672C2E90034C8
:1048D8000023C7F828336BE00000F03F07F5D472D7
:1048E800D7F82833DB00134418CBC7F8883024F0F6
:1048F8000043C7F88C3007F5A073D7E92212C3E943
:10490800001207F5BC72D7F82833DB00134418CB24
:10491800C7F8803024F00043C7F8843007F598734F
:10492800D7E92012C3E9001207F5A073D3E9000103
:1049380007F5987318CB1A462346FCF7BDF80346CB
:10494800002B11D107F5987318CB1846214607F0AC
:10495800F7F90346002B07D107F59873D3E900123E
:1049680007F5A073C3E9001207F5A07318CB1A4620
:10497800234607F54671D1E90001FCF79DF8034687
:10498800002B10D107F5A07318CB1846214607F065
:10499800D7F90346002B06D107F5A07318CB07F506
:1049A8004672C2E90034D7F828330133C7F82833F0
:1049B800D7F82833052B91DD00F0BDBFD7F8343385
:1049C800C7F828330023C7F81433D7F8283301333E
:1049D800C7F83833D7F82833B3F1FF3F03D10123A1
:1049E800C7F8143381E007F5BC72D7F82833DB0029
:1049F800134418CBBB6724F00043FB6707F5A0738B
:104A0800D7E91E12C3E9001207F5D472D7F8283384
:104A1800DB00134418CB3B6724F000437B67D7F8CF
:104A28002833013307F5D472DB00134418CBBB6677
:104A380024F00043FB66D7E91A23D7E91C01FBF7EA
:104A480003FC03460C46184621464FF00002AF4BC4
:104A5800FBF7ACFD03460C461846214607F5A07344
:104A680018CB1A462346FCF727F80346002B27D114
:104A780007F5A073D3E900014FF000024FF054731B
:104A8800FCF710F80346002B1AD1D7F83033142B53
:104A980026DD4FF000029D4B07F54671D1E9000174
:104AA800FBF784FD03460C461846214607F5A0731C
:104AB80018CB1A462346FBF7FFFF0346002B0FD0FF
:104AC80007F5BC72D7F82833DB001A444FF000030F
:104AD8004FF00004C2E900340123C7F8143304E09E
:104AE800D7F82833013BC7F82833D7F81433002BFD
:104AF8003FF468AFD7F828335A1CD7F8343301335A
:104B08009A4203D10423C7F83C33D6E0D7F83433AC
:104B18000233C7F82433D7F834330233C7F83C33A9
:104B2800002387F813339FE0D7F83C33C7F82433C2
:104B3800D7F828335A1CD7F83C339A4203D10123BB
:104B480087F8133390E007F5A0724FF000034FF099
:104B58000004C2E90034D7F834339A1CD7F83C3340
:104B68009A4211DDD7F83C33013B07F5BC72DB00F4
:104B7800134418CB3B6624F000437B6607F5A0730B
:104B8800D7E91812C3E90012D7F828339A1CD7F8C6
:104B98003C339A421CDAD7F83C33023B07F5BC7227
:104BA800DB00134418CBBB6524F00043FB6507F515
:104BB800A07318CB1A462346D7E91601FBF744FB26
:104BC80003460C461946224607F5A073C3E90012AE
:104BD800D7F83C33013B07F5D472DB00134418CBFC
:104BE8003B6524F000437B6507F59873D7E91412F9
:104BF800C3E9001207F5A073D3E900014FF00002E2
:104C0800424BFBF7D3FC03460C461846214607F5F2
:104C1800987318CB1A462346FBF74EFF0346002B22
:104C28000CD107F59873D3E900014FF000024FF05B
:104C38005473FBF737FF0346002B10D0D7F83C33EB
:104C4800013B07F5D472DB001A444FF000034FF024
:104C58000004C2E90034012387F8133304E0D7F8CD
:104C68003C33013BC7F83C3397F81333002B07D18B
:104C7800D7F828335A1CD7F83C339A427FF754AFF9
:104C8800D7F828335A1CD7F824339A4203D1032380
:104C9800C7F83C3311E0D7F834339A1CD7F82433DB
:104CA8009A4203D10123C7F83C3306E00223C7F830
:104CB8003C33D7F82433C7F83833D7F83C33022BC2
:104CC80000F0A680032B00F03781012B40F07B8594
:104CD80007F5BC72D7F83433DB001344D3E900126C
:104CE80007F59473C3E9001207F5BC72D7F834339B
:104CF800DB001A444FF000034FF00004C2E900340F
:104D0800D7F83433C7F8283378E000BF0000B03C48
:104D180007F5D472D7F82833DB00D01807F5987355
:104D280007F5A07207F5947100F0C4FED7F8283390
:104D38005A1CD7F8383301339A4239DD07F598738E
:104D480018CBBB6484F00043FB64D7F82833013BDD
:104D580007F5BC72DB00134418CB1A462346D7E983
:104D68001201FBF723FC03460C461946224607F5B9
:104D78009473C3E90012D7F828335D1ED7F8283397
:104D8800013B07F5BC72DB001344D3E9000107F5CA
:104D9800A07318CB1A462346FBF708FC03460C46BB
:104DA8001846214607F5BC72EB001344C3E900011D
:104DB800D7F8282313465B0013445B005E1CD7F822
:104DC80034335A1C13465B0013445B005D1C07F523
:104DD800A073D3E9001207F5987318CB07F1F00018
:104DE800CDE90234CDE900122A463146006800F0C8
:104DF80057FFD7F82833013BC7F82833D7F82833AB
:104E08005A1CD7F8383301339A4281DA00F093BD3F
:104E1800D7F83833013B07F5BC72DB001344D3E9FC
:104E2800001207F59473C3E90012D7F83833013B31
:104E380007F5BC72DB001A444FF000034FF0000482
:104E4800C2E90034D7F83833C7F828336AE007F5E1
:104E5800D472D7F82833DB00D01807F5987307F514
:104E6800A07207F5947100F025FE07F5987318CB2A
:104E78003B6484F000437B6407F5BC72D7F82833A1
:104E8800DB00134418CB1A462346D7E91001FBF779
:104E98008DFB03460C461946224607F59473C3E971
:104EA800001207F5BC72D7F82833DB001344D3E9A6
:104EB800000107F5A07318CB1A462346FBF776FBCB
:104EC80003460C461846214607F5BC72D7F8283326
:104ED800DB001344C3E90001D7F8282313465B001D
:104EE80013445B005E1CD7F838335A1E13465B0028
:104EF80013445B005D1C07F5A073D3E9001207F5A6
:104F0800987318CB07F1F800CDE90234CDE9001207
:104F18002A463146006800F0C3FED7F8283301332B
:104F2800C7F82833D7F828335A1CD7F83433023354
:104F38009A428CDD00F0FFBCD7F83433013307F513
:104F4800D472DB00134418CBBB6324F00043FB632B
:104F580007F58073D7E90E12C3E9001207F5D4727A
:104F6800D7F83433DB00134418CB3B6324F00043F9
:104F78007B6307F58073D7E90C12C3E9021207F5C2
:104F8800BC72D7F83433DB00134418CBBB6224F06F
:104F98000043FB6207F58073D7E90A12C3E90412DC
:104FA80007F5D472D7F83833DB00134418CB3B62CB
:104FB80024F000437B6207F58073D7E90812C3E940
:104FC800061207F5BC72D7F83833DB00134418CB48
:104FD800BB6124F00043FB6107F58073D7E9061233
:104FE800C3E908120123C7F83C3307F5807318CBCF
:104FF80007F54272C2E9003407F5807318CB1846EA
:10500800214606F09DFE0346002B36D00223C7F842
:105018002833002387F8073327E0D7F82833C7F861
:105028003C33D7F82833013B07F58072DB00134483
:1050380018CB1846214606F083FE0346002B0FD1F5
:10504800D7F82833013B07F58072DB00134418CBEF
:1050580007F54272C2E90034012387F8073304E0F8
:10506800D7F828330133C7F8283397F80733002BCC
:1050780003D1D7F82833052BCFDDD7F83C33042BE1
:1050880026DC20E007F58072D7F83C33DB001344B8
:10509800D3E9000107F54273D3E90023FBF716FDB6
:1050A8000346002B0AD007F58072D7F83C33DB00A3
:1050B800134418CB07F54272C2E90034D7F83C33E1
:1050C8000133C7F83C33D7F83C330133052BD9DD1E
:1050D800D7F83433013307F5D472DB001344D3E92E
:1050E800000107F54273D3E90023FBF789FB034668
:1050F8000C461946224607F59473C3E9001207F5D2
:10510800D472D7F83433DB001344D3E9000107F530
:105118004273D3E90023FBF773FB03460C46194699
:10512800224607F5A073C3E9001207F5BC72D7F849
:105138003433DB001344D3E9000107F54273D3E9A4
:105148000023FBF75DFB03460C461946224607F58C
:105158009873C3E9001207F5D472D7F83833DB0027
:105168001344D3E9000107F54273D3E90023FBF7A1
:1051780047FB03460C4607F53E72C2E9003407F5C3
:10518800A073D3E9000107F5947318CB1A46234698
:10519800FBF75AF803460C461D46264607F5A0734A
:1051A800D3E9000107F5947318CB1A462346FBF799
:1051B80049F803460C461A46234628463146FBF76B
:1051C800F5F903460C461D46264607F59873D3E9BC
:1051D800000107F5987318CB1A462346FBF7E6F942
:1051E80003460C461A46234628463146FBF72CF858
:1051F80003460C46184621464FF000024FF0804304
:10520800FBF7FEFA03460C461946224607F59C733F
:10521800C3E9001207F59473D3E9000107F5987301
:1052280018CB1A462346FBF7C1F903460C46194624
:10523800224607F5A073C3E9001207F5A073D3E966
:10524800000107F5A07318CB1A462346FBF7AEF901
:1052580003460C461946224607F5A073C3E9001217
:1052680007F59C73D3E900014FF000024FF00003EB
:10527800FBF704FC0346002B0CD007F5A073D3E919
:1052880000014FF000024FF00003FBF7F7FB034665
:10529800002B5BD107F59C73D3E9000107F59C73DC
:1052A80018CB1A462346FBF781F903460C461846E5
:1052B800214607F5A07318CB1A462346FAF7C4FF10
:1052C80003460C46184621460DF000FC0A460146E6
:1052D80007F59873C3E9001207F59C73D3E9000139
:1052E8004FF000024FF00003FBF7D2FB0346002B00
:1052F8000CD007F5987318CB3B6184F000437B61B1
:1053080007F59873D7E90412C3E9001207F5A073EB
:10531800D3E9005607F59C73D3E9000107F59873A4
:1053280018CB1A462346FAF78FFF03460C461A464F
:10533800234628463146FBF763FA03460C461946CE
:10534800224607F59873C3E9001207E007F598723B
:105358004FF000034FF00004C2E9003407F59473DE
:10536800D3E9000107F53E73D3E90023FAF76CFF90
:1053780003460C461D46264607F5947318CB1A4675
:10538800234607F53E71D1E90001FAF75BFF0346B2
:105398000C461A46234628463146FBF707F90346CA
:1053A8000C461846214607F5987318CB1A4623462B
:1053B800FAF74AFF03460C461946224607F5947346
:1053C800C3E9001207F5BC72D7F83833DB00134481
:1053D800D3E9000107F54273D3E90023FBF710FA7C
:1053E80003460C461846214607F53E73D3E90023C9
:1053F800FBF7DCF803460C461946224607F59C7372
:10540800C3E90012D7F838330133C7F82833C0E1AD
:1054180007F5987307F5A07207F59C7107F5947066
:1054280000F048FBD7F838335A1CD7F828339A428B
:105438000CDAD7F828339C1E07F59473D3E90012C9
:1054480007F5BC70E3000344C3E90012D7F828331A
:10545800013B07F5D472DB001344D3E9000107F5DB
:10546800A07318CB1A462346FBF7A0F803460C4650
:105478001D462646D7F82833013B07F5BC72DB00EA
:105488001344D3E9000107F5987318CB1A4623464D
:10549800FBF78CF803460C461A4623462846314645
:1054A800FAF7D2FE03460C461946224607F59473CE
:1054B800C3E90012D7F828335D1ED7F82833013B1B
:1054C80007F5BC72DB001344D3E9000107F5A073AC
:1054D80018CB1A462346FBF769F803460C4698464C
:1054E800A146D7F82833013B07F5D472DB001344F3
:1054F800D3E9000107F5987318CB1A462346FBF742
:1055080055F803460C461A46234640464946FAF7DC
:1055180099FE03460C461846214607F5BC72EB0077
:105528001344C3E9000107F5D472D7F82833DB0028
:105538001344D3E9000107F5987318CB1A4623469C
:10554800FBF734F803460C461946224607F59C73C8
:10555800C3E9001207F5D472D7F82833DB001344E7
:10556800D3E9000107F5A07318CB1A462346FBF7C9
:105578001DF803460C461846214607F5D472D7F89D
:105588002833DB001344C3E90001D7F828335A1E37
:1055980013465B0013445B005E1CD7F828231346B0
:1055A8005B0013445B005D1C07F5A073D3E9001290
:1055B80007F5987318CB07F1F000CDE90234CDE96F
:1055C80000122A463146006800F06AFBD7F82833F3
:1055D8005C1E07F59473D3E9001207F5D470E30055
:1055E8000344C3E90012D7F82833013B07F5D47206
:1055F800DB00D01807F5987307F5A07207F59C71C2
:1056080000F058FAD7F82833013B07F5BC72DB00E5
:105618001344D3E9000107F5A07318CB1A462346B3
:10562800FAF7C4FF03460C461D46264607F5D47212
:10563800D7F82833DB001344D3E9000107F5987342
:1056480018CB1A462346FAF7B1FF03460C461A460A
:10565800234628463146FAF7F7FD03460C46194615
:10566800224607F59473C3E9001207F5987318CB1F
:10567800BB6084F00043FB60D7F82833013B07F593
:10568800BC72DB00134418CB1A462346D7E9020143
:10569800FAF78CFF03460C461D46264607F5D472DA
:1056A800D7F82833DB001344D3E9000107F5A073CA
:1056B80018CB1A462346FAF779FF03460C461A46D2
:1056C800234628463146FAF7BFFD03460C461846DE
:1056D800214607F5D472D7F82833DB001344C3E911
:1056E800000107F5BC72D7F82833DB001344D3E96F
:1056F800000107F5987318CB1A462346FAF756FFA8
:1057080003460C461946224607F59C73C3E9001266
:1057180007F5BC72D7F82833DB001344D3E900013E
:1057280007F5A07318CB1A462346FAF73FFF03463E
:105738000C461846214607F5BC72D7F82833DB001B
:105748001344C3E90001D7F828335A1E13465B00F7
:1057580013445B005E1CD7F8282313465B001344F0
:105768005B005D1C07F5A073D3E9001207F5987379
:1057780018CB07F1F800CDE90234CDE900122A462A
:105788003146006800F08CFAD7F828330133C7F89F
:105798002833D7F834335A1CD7F828339A42BFF63F
:1057A80037AE07F59473D3E9001207F5BC70D7F844
:1057B8003433DB000344C3E90012D7F83033013334
:1057C800C7F83033B7E007F5D472D7F83833DB00C1
:1057D8001344D3E900014FF000024FF00003FBF738
:1057E80057F90346002B23D007F5D472D7F838337E
:1057F800DB00134418CB3B6084F000437B6007F563
:10580800D472D7F83833DB001344D7E90012C3E960
:105818000012D7F8382313465B0013445B000133AA
:1058280007F1F00212684FF000006D4900F014F91A
:10583800D7F838330133C7F83C3358E007F5D4724A
:10584800D7F83833DB001344D3E9001207F59C730B
:10585800C3E9001207F5D472D7F83C33DB001344D0
:10586800D3E9001207F5D470D7F83833DB000344C6
:10587800C3E9001207F59C73D3E9001207F5D47049
:10588800D7F83C33DB000344C3E90012D7F83823C8
:1058980013465B0013445B00591CD7F838335A1C75
:1058A80013465B0013445B005A1C07F1F0031868A9
:1058B80000F098F8D7F8382313465B0013445B00D0
:1058C800591CD7F838335A1C13465B0013445B0045
:1058D8005A1C07F1F803186800F084F8D7F83C332D
:1058E800C7F83833D7F83C330133C7F83C33D7F817
:1058F80038330133052B15DC07F5D472D7F8383364
:10590800DB001344D3E9000107F5D472D7F83C3320
:10591800DB00134418CB1A462346FBF7B9F80346B5
:10592800002B8BD10023C7F83033D7F83433013B31
:10593800C7F8343300BFD7F834330233002B04DD03
:10594800D7F830334A2B7FF739A80023C7F8283314
:1059580013E007F5D472D7F82833DB00134418CBCB
:1059680007F5BC71D7F82823D2000A44C2E90034ED
:10597800D7F828330133C7F82833D7F82833052B4D
:10598800E7DD07F1F4034FF4907200211868FCF783
:10599800E1FA0023C7F8283318E0D7F8282313467C
:1059A800DB009B1ADB001A4607F1F4031B681A4454
:1059B80007F5BC71D7F82833DB000B4418CBC2E9D4
:1059C8000034D7F828330133C7F82833D7F82833F9
:1059D800052BE2DD00BF07F55177BD46BDE8F08F26
:1059E8000000F0BF90B48AB000AFF860B9607A6088
:1059F800BB68013B7B627B68013B3B620023FB6128
:105A080022E07B6ADB00FA68134418CBC7E9043448
:105A18007B6ADB00FA681A443B6ADB00F9680B44CE
:105A280018CBC2E900343B6ADB00FA681A44D7E9AC
:105A38000434C2E900347B6A01337B623B6A013378
:105A48003B62FB690133FB61FB69052BD9DD00BFB4
:105A58002837BD4690BC7047B0B586B000AFC7E9DF
:105A680002017A603B603B687B611AE07B6903F165
:105A78000053013BDB007A68D5187B6903F10053BA
:105A8800013BDB007A681344D3E90001D7E902231C
:105A9800FAF78CFD03460C46C5E900347B690133EF
:105AA8007B613B685A1D7B699A42DFDA00BF183771
:105AB800BD46B0BDB0B590B000AFF860B9607A60CF
:105AC8003B60BB6818CBC7E90E34FB6818CB1A4695
